:020000040801F1
:10000000285B012091CE0508E1C10508E3C1050880
:10001000E5C10508E7C10508E9C1050800000000C1
:10002000000000000000000000000000EBC1050817
:10003000EDC1050800000000EFC10508F1C1050889
:1000400019D005081DD0050821D0050825D00508C0
:1000500029D005082DD0050835C2050831D005087E
:1000600035D0050841C20508D7C2050839D00508B2
:100070003DD0050841D0050849C205084FC2050812
:1000800045D0050849D005084DD0050851D00508D0
:1000900055D0050859D005085DD00508412502084E
:1000A00061D0050865D0050869D005086DD0050840
:1000B00055C2050875C2050887C2050871D0050834
:1000C00075D0050879D005087DD005088DC20508D2
:1000D00093C205085DDF020881D0050885D00508B8
:1000E00089D005088DD0050891D0050895D0050860
:1000F00099D005089DD00508A1D00508A5D0050810
:10010000A9D0050899C205089FC20508ADD0050809
:10011000B1D00508B5D00508B9D00508BDD005088F
:10012000A5C20508ABC20508E5DC0208ADC205089A
:10013000C1D00508C5D00508C9D00508CDD005082F
:10014000D1D00508D5D00508D9D00508B3C2050817
:10015000B9C20508C5C20508CBC20508D1C2050849
:10016000DDD00508E1D00508E5D00508E9D005088F
:10017000EDD00508F1D00508F5D005080000000015
:10018000F9D00508FDD005080000000000000000BF
:10019000000000000000000000000000000000005F
:1001A000000000000020202020202020202020000F
:1001B0000030300000000000000000000024242473
:1001C000240000000000000000000000000000000B
:1001D000000000000000000000000480048009000E
:1001E00009007FE0090009001200FFC012001200A0
:1001F00024002400000000000000000000000000B7
:10020000000000000000060006000F001680360007
:10021000360036003E001E000780078006C006C07C
:1002200006C026801F000600060000000000000037
:10023000000000000000000000003C0866104220A2
:100240004220424066803C80013C016602420442FA
:1002500004420866103C000000000000000000009E
:10026000000000000000000000000F8018C018C04F
:1002700018CC1DCC0F8C1F8C31C860C860786030E2
:10028000603030D81F8F0000000000000000000028
:1002900000000000002020202000000000000000DE
:1002A000000000000000000000000000000C1830FA
:1002B000303060606060606060303030180C00008A
:1002C0000000000000C060303030181818181818EE
:1002D0001830303060C00000000000000008086BDB
:1002E0001C141422000000000000000000000000A8
:1002F00000000000000000000000000000000000FE
:10030000000002000200020002003FE002000200C2
:1003100002000200000000000000000000000000D9
:1003200000000000000000000000000000000000CD
:10033000006040C0C080000000000000000000001D
:1003400000000000007E000000000000000000002F
:10035000000000000000000000000000000000009D
:1003600000606000000000000000000000030606BE
:10037000060C0C0C1818303030606060C0000000B3
:10038000000000000000000000000F0031803180FC
:1003900060C060C060C060C060C060C060C060C05D
:1003A000318031801E0000000000000000000000CD
:1003B000000000000000000000000E003E003600BB
:1003C00006000600060006000600060006000600FD
:1003D000060006003FC00000000000000000000012
:1003E000000000000000000000000F00118020C08D
:1003F00000C000C000C001800380030006000C00A4
:10040000180030007FC00000000000000000000065
:10041000000000000000000000001E00238001809A
:100420000180018003003C00038000C000C000C0C8
:1004300000C041803E0000000000000000000000FD
:10044000000000000000000000000380038007801F
:100450000D8019801180318061804180FFE0018032
:100460000180018001800000000000000000000009
:10047000000000000000000000003F80300030005D
:100480003000300030003F00018000C000C000C0DC
:1004900000C021801F0000000000000000000000DC
:1004A000000000000000000000000F001880300075
:1004B000200060006F00718060C060C060C060C0DC
:1004C00030C031801F00000000000000000000006C
:1004D000000000000000000000007FC000800180DC
:1004E00001800100030003000600060006000C0066
:1004F0000C000C00180000000000000000000000CC
:10050000000000000000000000000F001980318092
:10051000318031801B000E001B8031C060C060C084
:1005200060C031801F0000000000000000000000DB
:10053000000000000000000000001F00318061800A
:1005400060C060C060C060C031C01EC000C000801C
:10055000018023001E0000000000000000000000D9
:1005600000000000000000000060600000000000CB
:1005700000606000000000000000000000000000BB
:100580000060600000000000006040C0C08000000B
:10059000000000000000000000000000000000005B
:1005A0000000002000E003800E0018000E00038011
:1005B00000E000200000000000000000000000003B
:1005C000000000000000000000000000000000002B
:1005D0000000000000003FE00000000000003FE0DD
:1005E000000000000000000000000000000000000B
:1005F00000000000000000000000000000000000FB
:10060000000010001C00070001C0006001C00700CE
:100610001C001000000000000000000000000000AE
:10062000000000000000000000003E004700030042
:100630000300070006000C00180018001800000056
:10064000000018001800000000000000000000007A
:100650000000000000000000000000000000000199
:10066000F80006040008030018010010F0802110B3
:1006700080221080221080221080221180233100DD
:1006800011CE0010000008000006040001F8000070
:10069000000000000000000000000000000000005A
:1006A00000000300078007800F800CC00CC01CC036
:1006B000186038603FE0603060306030C018000083
:1006C000000000000000000000000000000000002A
:1006D00000003F0031C030C030C030C031803F002A
:1006E00030C0306030603060306030C03F8000002B
:1006F00000000000000000000000000000000000FA
:10070000000007C01C20380030006000600060005E
:10071000600060006000300030001C2007C0000056
:1007200000000000000000000000000000000000C9
:1007300000003F8030E03030303030183018301852
:100740003018301830183030302030C03F80000072
:100750000000000000000000000000000000000099
:1007600000003F80300030003000300030003F009B
:100770003000300030003000300030003F8000009A
:100780000000000000000000000000000000000069
:1007900000003F80300030003000300030003F80EB
:1007A00030003000300030003000300030000000F9
:1007B0000000000000000000000000000000000039
:1007C000000007E00C1018003000600060006000BE
:1007D00061F06030603030303030183007E00000B9
:1007E0000000000000000000000000000000000009
:1007F00000003018301830183018301830183FF812
:1008000030183018301830183018301830180000F0
:1008100000000000000000000000000000787830B8
:100820003030303030303030307878000000000028
:1008300000000000000C0C0C0C0C0C0C0C0C0C0C34
:100840000C18F00000000000000000000000000094
:100850000000306030C03180330036003C0038008A
:100860003C00340036003300318030C0306000007E
:100870000000000000000000000000000000000078
:100880000000300030003000300030003000300018
:100890003000300030003000300030003F80000079
:1008A0000000000000000000000000000000000048
:1008B000000000000000003807003C07003C0F006B
:1008C000340B00360B00321B00331300331300319E
:1008D000B30031A30030A30030E30030C300304345
:1008E0000000000000000000000000000000000008
:1008F0000000000000000000000038183C183C1800
:1009000036183618331833183198309830D8305894
:10091000307830383038000000000000000000005F
:100920000000000000000000000007C01C3030186C
:100930003018600C600C600C600C600C600C30189F
:100940003018183007C00000000000000000000050
:10095000000000000000000000003F00318030C0B7
:1009600030C030C030C031803F0030003000300037
:1009700030003000300000000000000000000000E7
:100980000000000000000000000007C01C3030180C
:100990003018600C600C600C600C600C600C30183F
:1009A0003018183007C000C00060003C0000000094
:1009B000000000000000000000003F8030C03060F8
:1009C00030603060306030C03F80318030C0306097
:1009D00030603030301000000000000000000000E7
:1009E000000000000000000000001E003100600058
:1009F0006000600070003C000F0007000180018073
:100A0000018043003E0000000000000000000000E4
:100A100000000000000000000000FFC00C000C00FF
:100A20000C000C000C000C000C000C000C000C0066
:100A30000C000C000C000000000000000000000092
:100A40000000000000000000000030303030303086
:100A50003030303030303030303030303030303096
:100A6000182018600F800000000000000000000047
:100A700000000000000000000000C0306060606006
:100A8000606030C030C030C01980198019800F00FC
:100A90000F000F0006000000000000000000000032
:100AA000000000000000000000000000000000C086
:100AB000C0C0C0C0C061E18061E18061618021216E
:100AC000003333003333003213001A12001E1E00AD
:100AD0001E1E000C0C000C0C0000000000000000AA
:100AE0000000000000000000000000000000000006
:100AF0000000C030606030C0118019800F00060017
:100B000006000F001980388030C06060C0300000DF
:100B100000000000000000000000000000000000D5
:100B20000000C06060C060C03080398019801F0044
:100B30000F00060006000600060006000600000082
:100B400000000000000000000000000000000000A5
:100B500000007FE000C00180038003000700060062
:100B60000C001C001800380030006000FFE000009E
:100B7000000000000000000000000000003C3030D9
:100B8000303030303030303030303030303C0000B9
:100B90000000000000C0C0606060303030181818DD
:100BA0000C0C0C060600000000000000007818186D
:100BB0001818181818181818181818181878000085
:100BC0000000000000000000000002000700050017
:100BD0000D80088018C018C03060000000000000C0
:100BE0000000000000000000000000000000000005
:100BF00000000000000000000000000000000000F5
:100C00000000000000FF0000000000006030100045
:100C100000000000000000000000000000000000D4
:100C200000000000000000000000000000000000C4
:100C300000001F002380018003803F807980618055
:100C4000618063803D800000000000000000000023
:100C50000000000000000000000030003000300004
:100C60003000378038C030603060306030603060D5
:100C700030C038C0378000000000000000000000D5
:100C80000000000000000000000000000000000064
:100C900000000E0031003000600060006000600065
:100CA000600031001E000000000000000000000095
:100CB0000000000000000000000000600060006014
:100CC00000600F6030E030606060606060606060B5
:100CD000706030E01F6000000000000000000000B5
:100CE0000000000000000000000000000000000004
:100CF00000000F00318020C060C07FC06000600035
:100D0000700030801F0000000000000000000000A4
:100D100000000000001C303030FC3030303030300B
:100D20003030300000000000000000000000000033
:100D3000000000000000000000000F6030E03060A4
:100D40006060606060606060706030E01F600060E4
:100D5000004020C01F000000000000000000000054
:100D600000003000300030003000378039C030C023
:100D700030C030C030C030C030C030C030C00000E3
:100D800000000000000000000000000000606000A3
:100D90000060606060606060606060000000000093
:100DA00000000000006060000060606060606060E3
:100DB0006060606060C08000000000000000000013
:100DC0000000300030003000300030C0318033008F
:100DD00036003C003C0036003300318030C000005B
:100DE0000000000000000000000000000030303073
:100DF00030303030303030303030300000000000E3
:100E000000000000000000000000000000000000E2
:100E10000000000000000000000000379E0039E7DD
:100E20000030C30030C30030C30030C30030C30003
:100E300030C30030C30030C30000000000000000D9
:100E400000000000000000000000000000000000A2
:100E500000000000000000000000378039C030C0F2
:100E600030C030C030C030C030C030C030C00000F2
:100E70000000000000000000000000000000000072
:100E8000000000000000000000000F8030C0306053
:100E90006060606060606060304030C00F000000E3
:100EA0000000000000000000000000000000000042
:100EB00000000000000000000000378038C03060F3
:100EC000306030603060306030C038C03780300013
:100ED0003000300030000000000000000000000082
:100EE000000000000000000000000F6030E03060F3
:100EF0006060606060606060606030E01F60006043
:100F000000600060006000000000000000000000C1
:100F100000363830303030303030300000000000E3
:100F20000000000000000000001E316060783E0FED
:100F300003433C00000000000000000000003030CF
:100F400030FC30303030303030301C0000000000D9
:100F50000000000000000000000000000000000091
:100F6000000060C060C060C060C060C060C060C0A1
:100F700060C031C01EC00000000000000000000082
:100F80000000000000000000000000000000000061
:100F90000000C180C30063006300660026003400C7
:100FA0003C001C00180000000000000000000000D1
:100FB0000000000000000000000000000000000031
:100FC0000000C30CC30C67986798649824903CF0A9
:100FD0003CF01860186000000000000000000000F5
:100FE0000000000000000000000000000000000001
:100FF0000000C1806300260036001C001C00340085
:1010000036006300C1800000000000000000000006
:1010100000000000000000000000000000000000D0
:101020000000C0C0618061806100330033001200A5
:101030001E000C000C00080018001000E00000006A
:1010400000000000000000000000000000000000A0
:1010500000007F800300060006000C00180030002E
:1010600030006000FF800000000000000000000071
:1010700000000000001C383030303030306030303C
:1010800030303030301C0000000000003030303094
:101090003030303030303030303030303030300080
:1010A0000000000000E07030303030303018303058
:1010B0003030303030E00000000000000000000060
:1010C0000000000000000000000000000000000020
:1010D0001C20272021C000000000000000000000AC
:1010E0000000000000000000000000000000000000
:1010F00000000000000000000000000000000000F0
:1011000000000000000000000000000000000000DF
:1011100000000000000000000000000000000000CF
:10112000003030000030303030303030303030007F
:1011300000000000000000000000000002000200AB
:1011400007001A801A0032003200320032003200EA
:101150001A800F00020002000000000000000000E2
:101160000000000000000000000007000C801800D4
:1011700018001800180018007F0018001800180048
:10118000180030007FC000000000000000000000D8
:1011900000000000000000000000000000004040CF
:1011A0003F80110020802080208011003F8040403F
:1011B000000000000000000000000000000000002F
:1011C0000000000000000000000060C0318031809D
:1011D00011001B001B000E003F80060006003F8030
:1011E00006000600060000000000000000000000ED
:1011F000000000003030303030303030000000303F
:10120000303030303030300000000000000000008E
:1012100000003C0062006000600038003E00670093
:10122000630073003E000E000600060046003C000E
:1012300000000000000000000000000000666600E2
:10124000000000000000000000000000000000009E
:10125000000000000000000000000000000000038B
:10126000F00006180008040011E200331300260104
:101270000026010026010026010033130011E200C0
:1012800008040006180003F0000000000000000041
:10129000000000000000000000000000001C22020E
:1012A0003E42463A0000000000000000000000003E
:1012B000000000000000000000000000000000002E
:1012C0000000000000000D801B0036006C0036009E
:1012D0001F000000000000000000000000000000EF
:1012E00000000000000000000000000000000000FE
:1012F0000000000000003FE000200020002000204F
:1013000000000000000000000000000000000000DD
:10131000000000000000000000000000007E00004F
:1013200000000000000000000000000000000000BD
:101330000000000000000003F00006180008040090
:1013400013C20032230022210022210023C10022E7
:10135000410032430012220008040006180003F086
:10136000000000000000000000000000000000007D
:101370000000000000FF000000000000000000006E
:10138000000000000000000000000000003844449D
:1013900044380000000000000000000000000000D1
:1013A000000000000000000000000000000000003D
:1013B00002000200020002003FE002000200020000
:1013C000020000003FE000000000000000000000FC
:1013D0000000000000384404040810207C000000D5
:1013E000000000000000000000000000003844047D
:1013F00038040444780000000000000000000000F1
:101400000000000018306000000000000000000034
:1014100000000000000000000000000000000000CC
:101420000000000000000000000030C030C030C0EC
:1014300030C030C030C030C030C039C03E60300035
:10144000300030003000000000000000000000000C
:1014500000003F00720072007200320012001200A1
:1014600012001200120012001200120012000000FE
:10147000000000000000000000000000000000006C
:10148000000000006060000000000000000000009C
:10149000000000000000000000000000000000004C
:1014A000000000407010106000000000003070105C
:1014B000101010107C000000000000000000000070
:1014C00000000000003C66424242663C0000000012
:1014D000000000000000000000000000000000000C
:1014E00000000000000000000000000000006C0090
:1014F00036001B000D801B003E00000000000000B5
:1015000000000000000000000000000000000000DB
:1015100000000000000000300400700800101000FF
:101520001010001020001040001042007C860000C7
:101530008A00011A00021200023F000402000802A1
:10154000000000000000000000000000000000009B
:10155000000000000000000000000000000000305B
:10156000040070080010100010100010200010403F
:1015700000104E007C910000810001010002020079
:10158000020400040800081F000000000000000022
:10159000000000000000000000000000000000004B
:1015A000000000000000003804004408000410009F
:1015B00038100004200004400044420078860000F7
:1015C0008A00011A00021200023F00040200080211
:1015D000000000000000000000000000000000000B
:1015E00000000000000000000000000000000000FB
:1015F00000000C000C00000000000C000C000C00AF
:101600001800300070006000600071001E000000D3
:1016100000000600030001000000030007800780AF
:101620000F800CC00CC01CC0186038603FE06030F8
:1016300060306030C01800000000000000000000B2
:101640000000030006000C00000003000780078074
:101650000F800CC00CC01CC0186038603FE06030C8
:1016600060306030C0180000000000000000000082
:1016700000000200050008800000030007800780CA
:101680000F800CC00CC01CC0186038603FE0603098
:1016900060306030C0180000000000000000000052
:1016A000000000000E401380000003000780078048
:1016B0000F800CC00CC01CC0186038603FE0603068
:1016C00060306030C0180000000000000000000022
:1016D000000000000CC00CC0000003000780078061
:1016E0000F800CC00CC01CC0186038603FE0603038
:1016F00060306030C01800000000000000000000F2
:1017000000000000070008800880078007000580AF
:101710000D800D8018C018C018C030603FE06030E8
:1017200060306030C01800000000000000000000C1
:1017300000000000000000000000000000000001A8
:10174000FF000360000260000660000660000C609D
:10175000000C7E001860001860003FE00030600060
:10176000606000606000C07F0000000000000000BA
:101770000000000000000000000000000000000069
:10178000000007C01C2018003000600060006000EE
:10179000600060006000300030001C200FC00200BC
:1017A000038000800380000000000C00060002009F
:1017B00000003F80300030003000300030003F003B
:1017C0003000300030003000300030003F8000003A
:1017D00000000000000000000000030006000C00F4
:1017E00000003F80300030003000300030003F000B
:1017F0003000300030003000300030003F8000000A
:101800000000000000000000000004000A001100B9
:1018100000003F80300030003000300030003F00DA
:101820003000300030003000300030003F800000D9
:101830000000000000000000000000001980198076
:1018400000003F80300030003000300030003F00AA
:101850003000300030003000300030003F800000A9
:1018600000000000000000000060301000787830B8
:1018700030303030303030303078780000000000C8
:101880000018306000787830303030303030303010
:101890003078780000000000001028400078783090
:1018A0003030303030303030307878000000000098
:1018B0000000C8C8007878303030303030303030F8
:1018C00030787800000000000000000000000000F8
:1018D00000003F8030E03030303030183018FE18D3
:1018E0003018301830183030302030C03F800000C1
:1018F000000000000000000000000000072009C0F8
:10190000000038183C183C183618361833183318AD
:101910003198309830D8305830783038303800002E
:1019200000000000000000000000060003000100AD
:10193000000007C01C3030183018600C600C600CC0
:10194000600C600C600C30183018183007C00000B4
:101950000000000000000000000000C00180030043
:10196000000007C01C3030183018600C600C600C90
:10197000600C600C600C30183018183007C0000084
:101980000000000000000000000001000280044090
:10199000000007C01C3030183018600C600C600C60
:1019A000600C600C600C30183018183007C0000054
:1019B000000000000000000000000000072009C037
:1019C000000007C01C3030183018600C600C600C30
:1019D000600C600C600C30183018183007C0000024
:1019E000000000000000000000000000066006602B
:1019F000000007C01C3030183018600C600C600C00
:101A0000600C600C600C30183018183007C00000F3
:101A100000000000000000000000000000000000C6
:101A200000000000000000000000102008400480BA
:101A300003000300048008401020000000000000A4
:101A40000000000000000000000000000000000096
:101A5000000007C41C3830183038604C60CC618CF2
:101A6000630C660C640C381838183C3047C0000012
:101A7000000000000000000000000600030001005C
:101A800000003030303030303030303030303030B6
:101A90003030303030303030182018600F80000087
:101AA00000000000000000000000018003000600AC
:101AB0000000303030303030303030303030303086
:101AC0003030303030303030182018600F80000057
:101AD000000000000000000000000100028004403F
:101AE0000000303030303030303030303030303056
:101AF0003030303030303030182018600F80000027
:101B00000000000000000000000000000CC00CC03D
:101B10000000303030303030303030303030303025
:101B20003030303030303030182018600F800000F6
:101B300000000000000000000000030006000C0090
:101B40000000C06060C060C03080398019801F0014
:101B50000F00060006000600060006000600000052
:101B60000000000000000000000000000000000075
:101B70000000300030003F00318030C030C030C045
:101B800030C031803F0030003000300030000000B5
:101B90000000000000000000000000000000000045
:101BA00000000F0019C030C030C030C03180360096
:101BB00031C030E030603060306030C037800000CD
:101BC0000000000000000000000000000000000015
:101BD00000000C000600020000001F0023800180AE
:101BE00003803F8079806180618063803D80000058
:101BF00000000000000000000000000000000000E5
:101C0000000006000C00180000001F002380018067
:101C100003803F8079806180618063803D80000027
:101C200000000000000000000000000000000000B4
:101C3000000004000A00110000001F002380018042
:101C400003803F8079806180618063803D800000F7
:101C50000000000000000000000000000000000084
:101C6000000000001C80270000001F00238001806E
:101C700003803F8079806180618063803D800000C7
:101C80000000000000000000000000000000000054
:101C9000000000003300330000001F00238001809B
:101CA00003803F8079806180618063803D80000097
:101CB0000000000000000000000000000000000024
:101CC000060009000900060000001F0023800180B3
:101CD00003803F8079806180618063803D80000067
:101CE00000000000000000000000000000000000F4
:101CF000000000000000000000001E3C23C601831D
:101D000001831FFF7180618061C062C23C7C000062
:101D100000000000000000000000000000000000C3
:101D2000000000000000000000000E003100300044
:101D30006000600060006000200031000E000400C0
:101D40000600020006000000000000000000000085
:101D500000000C000600020000000F00318020C0CF
:101D600060C07FC060006000700030801F00000015
:101D70000000000000000000000000000000000063
:101D80000000030006000C0000000F00318020C09E
:101D900060C07FC060006000700030801F000000E5
:101DA0000000000000000000000000000000000033
:101DB000000004000A00110000000F00318020C064
:101DC00060C07FC060006000700030801F000000B5
:101DD0000000000000000000000000000000000003
:101DE000000000001980198000000F00318020C021
:101DF00060C07FC060006000700030801F00000085
:101E00000000000000000000000000000060301032
:101E100000303030303030303030300000000000E2
:101E200000000000001830600030303030303030BA
:101E3000303030000000000000000000001028409A
:101E400000303030303030303030300000000000B2
:101E5000000000000000C8C80030303030303030A2
:101E600030303000000000000000000000000000E2
:101E70000000088007000E0011001F80318020C084
:101E800060C060C060C060C0608031801F00000022
:101E90000000000000000000000000000000000042
:101EA000000000000E4013800000378039C030C0B1
:101EB00030C030C030C030C030C030C030C0000092
:101EC0000000000000000000000000000000000012
:101ED00000000C000600020000000F8030C03060DF
:101EE0006060606060606060304030C00F00000083
:101EF00000000000000000000000000000000000E2
:101F00000000030006000C0000000F8030C03060AD
:101F10006060606060606060304030C00F00000052
:101F200000000000000000000000000000000000B1
:101F3000000002000500088000000F8030C0306003
:101F40006060606060606060304030C00F00000022
:101F50000000000000000000000000000000000081
:101F6000000000000E40138000000F8030C0306081
:101F70006060606060606060304030C00F000000F2
:101F80000000000000000000000000000000000051
:101F9000000000001980198000000F8030C0306000
:101FA0006060606060606060304030C00F000000C2
:101FB0000000000000000000000000000000000021
:101FC000000000000000000000000300030000000B
:101FD00000001FE0000000000300030000000000FC
:101FE00000000000000000000000000000000000F1
:101FF000000000000000000000000FA030C030E032
:102000006160626064606860784030C07F0040005A
:1020100000000000000000000000000000000000C0
:1020200000000C0006000200000060C060C060C03C
:1020300060C060C060C060C060C031C01EC0000031
:102040000000000000000000000000000000000090
:102050000000030006000C00000060C060C060C00B
:1020600060C060C060C060C060C031C01EC0000001
:102070000000000000000000000000000000000060
:10208000000004000A001100000060C060C060C0D1
:1020900060C060C060C060C060C031C01EC00000D1
:1020A0000000000000000000000000000000000030
:1020B0000000000019801980000060C060C060C08E
:1020C00060C060C060C060C060C031C01EC00000A1
:1020D0000000000000000000000000000000000000
:1020E000000006000C0018000000C0C06180618084
:1020F00061003300330012001E000C000C000800C9
:1021000018001000E00000000000000000000000C7
:1021100000003000300030003000378038C03060C0
:10212000306030603060306030C038C037803000A0
:10213000300030003000000000000000000000000F
:1021400000000000330033000000C0C061806180E7
:1021500061003300330012001E000C000C00080068
:1021600018001000E00000000000000000000F0058
:1021700000000300078007800F800CC00CC01CC04B
:10218000186038603FE0603060306030C018000098
:10219000000000000000000000000000000000003F
:1021A0000000000000001E0000001F0023800180CE
:1021B00003803F8079806180618063803D80000082
:1021C00000000000000000000000000010800F0070
:1021D00000000300078007800F800CC00CC01CC0EB
:1021E000186038603FE0603060306030C018000038
:1021F00000000000000000000000000000000000DF
:102200000000000021001E0000001F00238001804C
:1022100003803F8079806180618063803D80000021
:1022200000000000000000000000000000000000AE
:10223000000006000F000F000F00198019801980A0
:1022400030C030C03FC0606060604020C0300020BF
:102250000020003800000000000000000000000026
:10226000000000000000000000001F00238001802B
:1022700001803F8071806180618063803D800200C9
:10228000020001C000000000000000C00180030047
:10229000000007C01C2038003000600060006000B3
:1022A000600060006000300030001C2007C00000AB
:1022B000000000000000000000000000000000001E
:1022C0000000030006000C0000000E00310030008A
:1022D0006000600060006000600031001E000000CF
:1022E0000000000000000000000001000280044027
:1022F000000007C01C203800300060006000600053
:10230000600060006000300030001C2007C000004A
:1023100000000000000000000000000000000000BD
:10232000000004000A00110000000E00310030001F
:102330006000600060006000600031001E0000006E
:102340000000000000000000000000000300030087
:10235000000007C01C2038003000600060006000F2
:10236000600060006000300030001C2007C00000EA
:10237000000000000000000000000000000000005D
:10238000000000000600060000000E0031003000D2
:102390006000600060006000600031001E0000000E
:1023A000000000000000000000000360014000C0C9
:1023B000000007C01C203800300060006000600092
:1023C000600060006000300030001C2007C000008A
:1023D00000000000000000000000000000000000FD
:1023E00000001B000A00060000000E003100300053
:1023F0006000600060006000600031001E000000AE
:10240000000000000000000000000D800500030037
:1024100000003F8030E03030303030183018301855
:102420003018301830183030302030C03F80000075
:10243000000000000000000000000000000000009C
:10244000000000C800D800D000C01EC031C020C0AD
:1024500060C060C060C060C060C031C01EC000000D
:10246000000000000000000000000000000000006C
:1024700000003F8030E03030303030183018FE1827
:102480003018301830183030302030C03F80000015
:10249000000000000000000000000000000000003C
:1024A0000000006007F0006000600F6030E0306006
:1024B0006060606060606060706030E01F600000BD
:1024C00000000000000000000000000000000F00FD
:1024D00000003F80300030003000300030003F000E
:1024E0003000300030003000300030003F8000000D
:1024F00000000000000000000000000000000000DC
:102500000000000000000F0000000F00318020C01C
:1025100060C07FC060006000700030801F0000005D
:1025200000000000000000000000000010800F000C
:1025300000003F80300030003000300030003F00AD
:102540003000300030003000300030003F800000AC
:10255000000000000000000000000000000000007B
:102560000000000010800F0000000F00318020C02C
:1025700060C07FC060006000700030801F000000FD
:10258000000000000000000000000000060006003F
:1025900000003F80300030003000300030003F004D
:1025A0003000300030003000300030003F8000004C
:1025B000000000000000000000000000000000001B
:1025C000000000000600060000000F00318020C05F
:1025D00060C07FC060006000700030801F0000009D
:1025E00000000000000000000000000000000000EB
:1025F00000003F80300030003000300030003F00ED
:102600003000300030003000300030003F800200E9
:102610000200038000000000000000000000000035
:10262000000000000000000000000F00318020C00A
:1026300060C07FC060006000700030801F800800B4
:1026400008000E000000000000001B000A00060049
:1026500000003F80300030003000300030003F008C
:102660003000300030003000300030003F8000008B
:10267000000000000000000000000000000000005A
:1026800000001B000A00060000000F00318020C07F
:1026900060C07FC060006000700030801F000000DC
:1026A0000000000000000000000001000280044063
:1026B000000007E00C1018003000600060006000AF
:1026C00061F06030603030303030183007E00000AA
:1026D00000000000000000000000000000000000FA
:1026E000000002000500088000000F6030E030604C
:1026F0006060606060606060706030E01F6000601B
:10270000004020C01F00000000000000042003C0A3
:10271000000007E00C10180030006000600060004E
:1027200061F06030603030303030183007E0000049
:102730000000000000000000000000000000000099
:10274000000000000840078000000F6030E03060AB
:102750006060606060606060706030E01F600060BA
:10276000004020C01F000000000000000180018028
:10277000000007E00C1018003000600060006000EE
:1027800061F06030603030303030183007E00000E9
:102790000000000000000000000000000000000039
:1027A000000000000600060000000F6030E030600E
:1027B0006060606060606060706030E01F6000605A
:1027C000004020C01F0000000000000000000000CA
:1027D000000007E00C10180030006000600060008E
:1027E00061F06030603030303030183007E0000089
:1027F0000180030002000000000000000000000053
:10280000020002000400000000000F6030E03060B1
:102810006060606060606060706030E01F600060F9
:10282000004020C01F0000000000010002800440A2
:1028300000003018301830183018301830183FF8B1
:102840003018301830183018301830183018000090
:102850000000000000000000000020005000880080
:1028600000003000300030003000378039C030C008
:1028700030C030C030C030C030C030C030C00000C8
:102880000000000000000000000000000000000048
:10289000000030183018FFFCFFFC301830183FF8EB
:1028A0003018301830183018301830183018000030
:1028B0000000000000000000000000000000000018
:1028C0000000300030007E003000378039C030C05A
:1028D00030C030C030C030C030C030C030C0000068
:1028E0000000000000000000000000000000007870
:1028F00000303030303030303030300000000000F8
:102900000000000000787830303030303030303027
:1029100030787820404070000000000000606000C7
:1029200000303030303030303030302040406000C7
:102930000000303000787830303030303030303097
:102940003078780000000000000000000000000067
:102950000030303030303030303030000000000097
:1029600000000000000000000000783078303030B7
:102970003030303030303030303030303030303057
:10298000303078607BC000000000000000000000D4
:102990000000000000000000000063006300000071
:1029A0000000630063006300630063006300630072
:1029B0006300630063000300030006001C000000C6
:1029C00000081422000C0C0C0C0C0C0C0C0C0C0C45
:1029D0000C18F000000000000000000000305888D3
:1029E0000030303030303030303030303060C00087
:1029F00000000000000000000000306030C03180A6
:102A0000330036003C0038003C0034003600330010
:102A1000318030C03060000006000C00080000006B
:102A20000000000000000000000030003000300016
:102A3000300030C03180330036003C003C003600AE
:102A40003300318030C0000006000C000800000098
:102A50000000000000000000000000000000000076
:102A6000000030C03180330036003C003C003600AE
:102A70003300318030C00000000000000000000082
:102A8000000018003000600000003000300030000E
:102A900030003000300030003000300030003000B6
:102AA000300030003F800000000000000000000007
:102AB000001830600030303030303030303030305E
:102AC00030303000000000000000000000303030E6
:102AD000303030303030303030303000183020007E
:102AE00000000000000000000000318033003200D0
:102AF0003000300030003000300030003000300056
:102B0000300030003F8000000000000000000000A6
:102B1000000000000030343430303030303030309D
:102B20003030300000000000000000000000000015
:102B3000000030003000300030003000330033003F
:102B40003000300030003000300030003F800000A6
:102B500000000000000000000000000000303030E5
:102B60003030323230303030303030000000000051
:102B700000000000000000000000300030003000C5
:102B80003000320034003800300030007000300077
:102B9000300030003F800000000000000000000016
:102BA0000000000000303030303038383070703085
:102BB0003030300000000000000000C00180030041
:102BC000000038183C183C183618361833183318DB
:102BD0003198309830D8305830783038303800005C
:102BE00000000000000000000000000000000000E5
:102BF0000000030006000C000000378039C030C020
:102C000030C030C030C030C030C030C030C0000034
:102C100000000000000000000000000000000000B4
:102C2000000038183C183C1836183618331833187A
:102C30003198309830D830583078303830380000FB
:102C400001800300020000000000000000000000FE
:102C500000000000000000000000378039C030C0D4
:102C600030C030C030C030C030C030C030C00000D4
:102C700006000C0008000000000006C00280018071
:102C8000000038183C183C1836183618331833181A
:102C90003198309830D8305830783038303800009B
:102CA0000000000000000000000000000000000024
:102CB00000000D80050003000000378039C030C0DF
:102CC00030C030C030C030C030C030C030C0000074
:102CD00000000000000000000000000000000000F4
:102CE0000000C000C0008000800013C01CC018603D
:102CF00010601060106010601060106010600000C4
:102D000000000000000000000000000000000000C3
:102D10000000301838183C183C183618331833188F
:102D20003198309830D830783078303830180018F2
:102D3000001000E0000000000000000000000000A3
:102D400000000000000000000000378039C030C0E3
:102D500030C030C030C030C030C030C030C000C023
:102D600000C001800700000000000000000003C058
:102D7000000007C01C3030183018600C600C600C6C
:102D8000600C600C600C30183018183007C0000060
:102D90000000000000000000000000000000000033
:102DA0000000000000000F0000000F8030C0306005
:102DB0006060606060606060304030C00F000000A4
:102DC000000000000000000000000000042003C01C
:102DD000000007C01C3030183018600C600C600C0C
:102DE000600C600C600C30183018183007C0000000
:102DF00000000000000000000000000000000000D3
:102E00000000000010800F0000000F8030C0306014
:102E10006060606060606060304030C00F00000043
:102E20000000000000000000000000A0014002803F
:102E3000000007C01C3030183018600C600C600CAB
:102E4000600C600C600C30183018183007C000009F
:102E50000000000000000000000000000000000072
:102E60000000028005000A0000000F8030C03060C2
:102E70006060606060606060304030C00F000000E3
:102E80000000000000000000000000000000000042
:102E90000000000000000007FF801C300030300000
:102EA000303000603000603000603F006030006013
:102EB00030006030003030003030001C300007FF40
:102EC0008000000000000000000000000000000082
:102ED00000000000000000000000000000000000F2
:102EE00000000000000000000000000F0F0030D1C3
:102EF000803060C06060C0607FC060600060600063
:102F000030700030F0801F1F000000000000000043
:102F10000000000000000000000001800300060027
:102F200000003F8030C0306030603060306030C0C2
:102F30003F80318030C03060306030303010000071
:102F400000000000000000000000000000060C1857
:102F50000036383030303030303030000000000083
:102F6000000000000000000000003F8030C0306022
:102F700030603060306030C03F80318030C03060C1
:102F80003060303030100000030006000400000004
:102F900000000000000000000036383030303030D3
:102FA000303030003060400000000D80050003002C
:102FB00000003F8030C0306030603060306030C032
:102FC0003F80318030C030603060303030100000E1
:102FD0000000000000000000000000000036140C9B
:102FE00000363830303030303030300000000000F3
:102FF000000006000C00180000001E0031006000F8
:103000006000600070003C000F000700018001803C
:10301000018043003E0000000000000000000000AE
:103020000000000000060C18001E316060783E0FA2
:1030300003433C0000000000000004000A001100EF
:1030400000001E00310060006000600070003C0065
:103050000F00070001800180018043003E00000056
:1030600000000000000000000000000000040A1141
:10307000001E316060783E0F03433C0000000000FA
:10308000000000000000000000001E003100600091
:103090006000600038003C000F0003800180018068
:1030A000018043003E0008000E0002000E000000F8
:1030B0000000000000000000001E216060783E0F4C
:1030C00003433C101C04180000001B000A0006000B
:1030D00000001E00310060006000600070003C00D5
:1030E0000F00070001800180018043003E000000C6
:1030F000000000000000000000000000001B0A06A5
:10310000001E316060783E0F03433C000000000069
:1031100000000000000000000000FFC00C000C00D8
:103120000C000C000C000C000C000C000C000C003F
:103130000C000C000C0008000E0002000C00000047
:10314000000000000000303030FC303030303030D3
:1031500030301C080C040C0000001B000A000600A4
:103160000000FFC00C000C000C000C000C000C0058
:103170000C000C000C000C000C000C000C000000FB
:1031800000000000000000000000000000013332D9
:1031900030FC30303030303030301C000000000067
:1031A00000000000000000000000FFC00C000C0048
:1031B0000C000C000C003F000C000C000C000C007C
:1031C0000C000C000C0000000000000000000000DB
:1031D000000000000000303030FC3030FC30303077
:1031E00030301C000000000000000000072009C073
:1031F000000030303030303030303030303030302F
:103200003030303030303030182018600F800000FF
:1032100000000000000000000000000000000000AE
:10322000000000001C802700000060C060C060C07B
:1032300060C060C060C060C060C031C01EC000001F
:1032400000000000000000000000000000000780F7
:1032500000003030303030303030303030303030CE
:103260003030303030303030182018600F8000009F
:10327000000000000000000000000000000000004E
:103280000000000000000F00000060C060C060C0CF
:1032900060C060C060C060C060C031C01EC00000BF
:1032A000000000000000000000000000084007804F
:1032B000000030303030303030303030303030306E
:1032C0003030303030303030182018600F8000003F
:1032D00000000000000000000000000000000000EE
:1032E0000000000010800F00000060C060C060C0DF
:1032F00060C060C060C060C060C031C01EC000005F
:1033000000000000000000000300048004800300AF
:10331000000030303030303030303030303030300D
:103320003030303030303030182018600F800000DE
:10333000000000000000000000000000000000008D
:103340000600090009000600000060C060C060C0FF
:1033500060C060C060C060C060C031C01EC00000FE
:103360000000000000000000000001400280050095
:1033700000003030303030303030303030303030AD
:103380003030303030303030182018600F8000007E
:10339000000000000000000000000000000000002D
:1033A0000000028005000A00000060C060C060C02C
:1033B00060C060C060C060C060C031C01EC000009E
:1033C00000000000000000000000000000000000FD
:1033D000000030303030303030303030303030304D
:1033E0003030303030303030182018600FC00300DB
:1033F00003000380018000000000000000000000C6
:103400000000000000000000000060C060C060C05C
:1034100060C060C060C060C060C031C01EC001003C
:10342000010001E00000000000000000400000A0DA
:1034300000011000000000C0C0C0C0C0C061E18039
:1034400061E1806161802121003333003333003238
:1034500013001A12001E1E001E1E000C0C000C0C85
:10346000000000000000000000000000000000005C
:103470000000000000000000000001000280044085
:103480000000C30CC30C67986798649824903CF0C4
:103490003CF0186018600000000000000000000010
:1034A000000004000A0011000000C06060C060C09D
:1034B0003080398019801F000F00060006000600CA
:1034C00006000600060000000000000000000000EA
:1034D0000000000000000000000004000A001100CD
:1034E0000000C0C0618061806100330033001200C1
:1034F0001E000C000C00080018001000E000000086
:1035000000000000198019800000C06060C060C029
:103510003080398019801F000F0006000600060069
:103520000600060006000000000000000000000089
:103530000000030006000C0000007FE000C00180D6
:1035400003800300070006000C001C001800380070
:1035500030006000FFE000000000000000000000FC
:103560000000000000000000000006000C00180031
:1035700000007F800300060006000C0018003000E9
:1035800030006000FF80000000000000000000002C
:10359000000000000600060000007FE000C001807F
:1035A00003800300070006000C001C001800380010
:1035B00030006000FFE0000000000000000000009C
:1035C0000000000000000000000000000C000C00E3
:1035D00000007F800300060006000C001800300089
:1035E00030006000FF8000000000000000000000CC
:1035F00000001B000A00060000007FE000C0018000
:1036000003800300070006000C001C0018003800AF
:1036100030006000FFE0000000000000000000003B
:10362000000000000000000000001B000A0006006F
:1036300000007F800300060006000C001800300028
:1036400030006000FF80000000000000000000006B
:103650000000000000183030303030303030303072
:1036600030303000000000000000000000000000CA
:1036700000001B000A00060000001F0023800180DC
:1036800003803F8079806180618063803D8000009D
:103690000000000000000000000000000068281882
:1036A000003030303030303030303000000000003A
:1036B000000000000000000000000D800500030075
:1036C00000000F8030C030606060606060606060EB
:1036D000304030C00F00000000000000000000007B
:1036E00000000000000000001B000A0006000000AF
:1036F000000060C060C060C060C060C060C060C0EA
:1037000060C031C01EC000000000000000000000CA
:10371000000000001E000000000033003300000025
:10372000000060C060C060C060C060C060C060C0B9
:1037300060C031C01EC0000000000000000000009A
:103740000180030006000000000033003300000089
:10375000000060C060C060C060C060C060C060C089
:1037600060C031C01EC0000000000000000000006A
:103770001B000A00060000000000330033000000B8
:10378000000060C060C060C060C060C060C060C059
:1037900060C031C01EC0000000000000000000003A
:1037A00018000C000400000000003300330000008B
:1037B000000060C060C060C060C060C060C060C029
:1037C00060C031C01EC0000000000000000000000A
:1037D00000000000000000000000060003000100DF
:1037E0000000378039C030C030C030C030C030C079
:1037F00030C030C030C000000000000000000000F9
:1038000000000600080000000C00120012000C006E
:1038100000001F002380018003803F807980618049
:10382000618063803D800000000000000000000017
:1038300000000000300000600000C0000000000137
:10384000FF000360000260000660000660000C607C
:10385000000C7E001860001860003FE0003060003F
:10386000606000606000C07F000000000000000099
:103870000000000000000000000000000000000048
:103880000000006000C0018000001E3C23C60183D0
:1038900001831FFF7180618061C062C23C7C0000B7
:1038A0000000000000000000000000C001800300D4
:1038B000000007C41C3830183038604C60CC618C74
:1038C000630C660C640C381838183C3047C0000094
:1038D00000000000000000000000000000000000E8
:1038E00000001E00310060006000600070003C00BD
:1038F0000F00070001800180018043003E000000AE
:103900000C00180010000000000000000000000083
:10391000001E316060783E0F03433C000C1810001D
:103920000000000000000000000000000000000097
:1039300000001F3031A030E060E060C060C060C0B7
:1039400060C031601E300000000000000000000078
:103950000000000000000000000000000000000067
:1039600000000F6030E03060606060606060606048
:10397000706030E01F600060004020C01F00000049
:10398000000000001980198000003F8030003000E6
:103990003000300030003F00300030003000300098
:1039A000300030003F8000000000000000000000F8
:1039B000000000000000000000007FC00C000C00B0
:1039C0000C000C000C000FE00C300C180C180C183C
:1039D0000C180C300CE0000000000000000000009B
:1039E0000000030006000C0000003F8030003000A3
:1039F0003000300030003000300030003000300047
:103A00003000300030000000000000000000000026
:103A10000000000000000000000007C01C20300073
:103A20003000600060007F80600060006000300057
:103A300030001C2007C00000000000000000000053
:103A4000000000000000000000001E0031006000C7
:103A50006000600070003C000F00070001800180E2
:103A6000018043003E000000000000000000000054
:103A700000000000007878303030303030303030A6
:103A800030787800000000000000C8C80078783066
:103A90003030303030303030307878000000000086
:103AA00000000000000C0C0C0C0C0C0C0C0C0C0C92
:103AB0000C18F000000000000000000000000000F2
:103AC0000000000000000007F00006300006300093
:103AD0000630000E30000C30000C3F000C31800C22
:103AE00030C00C30C00C30C01830C0183180703F6E
:103AF00000000000000000000000000000000000C6
:103B00000000000000000000000000000000003085
:103B10003000303000303000303000303000303095
:103B2000003FFF003031803030C03030C03030C016
:103B30003030C0303180303F000000000000000015
:103B40000000000000000000000000000000000075
:103B50000000FFC00C000C000C000C000C000FE07B
:103B60000C300C180C180C180C180C180C18000041
:103B700000000000000000000000030006000C0030
:103B80000000306030C03180330036003C00380027
:103B90003C00340036003300318030C0306000001B
:103BA00000000000000000000000000010800F0076
:103BB0000000606030C030C030C01980198009003A
:103BC0000F000E00060006000C0048003000000048
:103BD00000000000000000000000000000000000E5
:103BE00000003018301830183018301830183018DD
:103BF0003018301830183018301830183FF80300DB
:103C000003000300030000000000000000000000AB
:103C100000000300078007800F800CC00CC01CC090
:103C2000186038603FE0603060306030C0180000DD
:103C30000000000000000000000000000000000084
:103C400000003F80300030003000300030003F0086
:103C5000318030C030C030C030C031803F00000003
:103C60000000000000000000000000000000000054
:103C700000003F0031C030C030C030C031803F0054
:103C800030C0306030603060306030C03F80000055
:103C90000000000000000000000000000000000024
:103CA00000003F8030003000300030003000300035
:103CB00030003000300030003000300030000000B4
:103CC00000000000000000000000000000000000F4
:103CD000000007F00630063006300C300C300C3097
:103CE0001C3018301830303030306030FFFCC00CE1
:103CF000C00CC00CC00C0000000000000000000060
:103D000000003F80300030003000300030003F00C5
:103D10003000300030003000300030003F800000C4
:103D20000000000000000000000000000000000093
:103D300000000000000000E0C38060C30030C60047
:103D400018CC000CD80006F00003E00006F00004D8
:103D5000D0000CD80018CC0030C60060C300E0C30F
:103D600080000000000000000000000000000000D3
:103D7000000000000000000000003E004300018041
:103D80000180018003001E00018000C000C000C04F
:103D900000C041803F000000000000000000000063
:103DA00000000000000000000000301830383078BB
:103DB000305830D8309831983318321836183418B3
:103DC0003C18381830180000000000000000000007
:103DD00000000000042003C00000301830383078A4
:103DE000305830D830983198331832183618341883
:103DF0003C183818301800000000000000000000D7
:103E000000000000000000000000306030C0318081
:103E1000330036003C0038003C00340036003300EC
:103E2000318030C030600000000000000000000061
:103E30000000000000000000000007F0063006301F
:103E400006300E300C300C300C300C300C300C3096
:103E50001830183070300000000000000000000032
:103E6000000000000000000000000000000000381A
:103E700007003C07003C0F00340B00360B00321BE0
:103E80000033130033130031B30031A30030A3001B
:103E900030E30030C30030430000000000000000A9
:103EA0000000000000000000000000000000000012
:103EB00000003018301830183018301830183FF81B
:103EC00030183018301830183018301830180000FA
:103ED00000000000000000000000000000000000E2
:103EE000000007C01C3030183018600C600C600CEB
:103EF000600C600C600C30183018183007C00000DF
:103F000000000000000000000000000000000000B1
:103F100000003FF8301830183018301830183018BA
:103F20003018301830183018301830183018000099
:103F30000000000000000000000000000000000081
:103F400000003F00318030C030C030C030C0318010
:103F50003F00300030003000300030003000000002
:103F60000000000000000000000000000000000051
:103F7000000007C01C2038003000600060006000B6
:103F8000600060006000300030001C2007C00000AE
:103F90000000000000000000000000000000000021
:103FA0000000FFC00C000C000C000C000C000C000A
:103FB0000C000C000C000C000C000C000C000000AD
:103FC00000000000000000000000000000000000F1
:103FD0000000606030C030C030C019801980090016
:103FE0000F000E00060006000C0048003000000024
:103FF00000000000000000000000000000000000C1
:104000000000030003000FE033383318630C630C27
:10401000630C630C331833300FE00300030000001F
:104020000000000000000000000000000000000090
:104030000000C030606030C0118019800F000600A1
:1040400006000F001980388030C06060C03000006A
:104050000000000000000000000000000000000060
:104060000000301830183018301830183018301858
:104070003018301830183018301830183FFE00064D
:10408000000600060006000000000000000000001E
:104090000000303030303030303030303030387038
:1040A0000FB0003000300030003000300030000031
:1040B0000000000000000000000000000000000000
:1040C00000000000000000306180306180306180BD
:1040D000306180306180306180306180306180305B
:1040E00061803061803061803061803061803FFF6D
:1040F0008000000000000000000000000000000040
:10410000000000000000000000000000000000307F
:10411000C18030C18030C18030C18030C18030C1A9
:104120008030C18030C18030C18030C18030C180DA
:1041300030C18030C1803FFFE000006000006000BF
:1041400000600000600000000000000000000000AF
:104150000000FC000C000C000C000C000C000FE038
:104160000C300C180C180C180C180C300FE0000058
:10417000000000000000000000000000000000003F
:104180000000300C300C300C300C300C300C3F0C7C
:10419000318C30CC30CC30CC30CC318C3F0C00006A
:1041A000000000000000000000000000000000000F
:1041B00000003000300030003000300030003F00A0
:1041C000318030C030C030C030C031803F0000008E
:1041D00000000000000000000000000000000000DF
:1041E00000003E00438000C000C0006000601FE08F
:1041F00000600060006000C000C043803E0000001E
:1042000000000000000000000000000000000000AE
:1042100000000000000000301F0030618030C0C08E
:1042200030C0C03180603180603F8060318060315B
:10423000806031806030C0C030C0C0306180301ECE
:10424000000000000000000000000000000000006E
:10425000000000000000000000000FC018C030C0C7
:1042600030C030C030C018C00FC018C018C030C037
:1042700030C030C060C0000000000000000000003E
:10428000000000000000000000000000000000002E
:1042900000001F002380018003803F8079806180BF
:1042A000618063803D80000000000000000000008D
:1042B0000000000000000000000001801F00380026
:1042C000300060006F00718060C060C060C060C07E
:1042D00020C031801F00000000000000000000002E
:1042E00000000000000000000000000000000000CE
:1042F00000003F003180318031803E0031803180CC
:10430000318031803F00000000000000000000000C
:104310000000000000000000003F3030303030303E
:1043200030303000000000000000000000000000FD
:10433000000000000000000000001F8019801980AC
:10434000198019803180318031806180FFE0C06048
:10435000C060C060C06000000000000000000000FD
:10436000000000000000000000000F00318020C0AD
:1043700060C07FC060006000700030801F000000DF
:10438000000000000000000000000000000000002D
:1043900000000000000000000000E30C6318333050
:1043A0001B600FC00FE01B703338631CE30E00006E
:1043B00000000000000000000000000000000000FD
:1043C000000000000000000000003E004300030069
:1043D00003001E0006000300030047003E0000002B
:1043E00000000000000000000000000000000000CD
:1043F0000000000000000000000030C031C031C0EB
:1044000032C032C034C034C038C038C030C0000000
:10441000000000000000000000000000000000009C
:104420000000000010800F00000030C031C031C01B
:1044300032C032C034C034C038C038C030C00000D0
:10444000000000000000000000000000000000006C
:104450000000000000000000000031C03180330087
:1044600036003C003C0036003300318031C0000093
:10447000000000000000000000000000000000003C
:10448000000000000000000000000F800D800D8083
:104490000D800D80198019801980318061800000A5
:1044A000000000000000000000000000000000000C
:1044B0000000000000000000000030383838387874
:1044C0003858345834D83498379833983318000013
:1044D00000000000000000000000000000000000DC
:1044E0000000000000000000000030C030C030C0FC
:1044F00030C03FC030C030C030C030C030C000001D
:1045000000000000000000000000000000000000AB
:10451000000000000000000000000F8030C030608C
:104520006060606060606060304030C00F0000001C
:10453000000000000000000000000000000000007B
:10454000000000000000000000003FC030C030C08C
:1045500030C030C030C030C030C030C030C00000CB
:10456000000000000000000000000000000000004B
:1045700000000000000000000000378038C03060FC
:10458000306030603060306030C038C0378030001C
:10459000300030003000000000000000000000008B
:1045A000000000000000000000000E00310030009C
:1045B0006000600060006000600031001E000000CC
:1045C00000000000000000000000000000000000EB
:1045D00000FF181818181818181818000000000004
:1045E00000000000000000000000000000000000CB
:1045F0000000C0C0618061806100330033001200A0
:104600001E000C000C00080018001000E000000064
:104610000000000000000000000003000300030091
:1046200003000FE0333033306318631863186318E6
:10463000333833301FE003000300030003000000A1
:10464000000000000000000000000000000000006A
:104650000000C1806300260036001C001C003400EE
:1046600036006300C1800000000000000000000070
:10467000000000000000000000000000000000003A
:10468000000030C030C030C030C030C030C030C09A
:1046900030C030C03FF0003000300030003000004B
:1046A000000000000000000000000000000000000A
:1046B000000060C060C060C060C061C03EC000C09B
:1046C00000C000C000C000000000000000000000AA
:1046D00000000000000000000000000000000000DA
:1046E00000003186318631863186318631863186C9
:1046F000318631863FFE000000000000000000000F
:1047000000000000000000000000000000000000A9
:104710000000318C318C318C318C318C318C318C6E
:10472000318C318C3FFF00030003000300030000C5
:104730000000000000000000000000000000000079
:104740000000F8001800180018001FC0186018605A
:10475000186018601FC0000000000000000000008A
:104760000000000000000000000000000000000049
:10477000000030183018301830183F9830D830D832
:1047800030D830D83F980000000000000000000042
:104790000000000000000000000000000000000019
:1047A000000030003000300030003F8030C030C0AA
:1047B00030C030C03F80000000000000000000005A
:1047C00000000000000000000000000000000000E9
:1047D00000003C004600030003003F00030003000C
:1047E000070046003C000000000000000000000040
:1047F00000000000000000000000000000000000B9
:10480000000030F8318C330633063F06330633069A
:104810003106318C30F8000000000000000000007C
:104820000000000000000000000000000000000088
:1048300000001F8031803180318031801F801980DD
:104840003180318061800000000000000000000025
:104850000000000000000000000000001980198026
:1048600000000F00318020C060C07FC06000600089
:10487000700030801F0000000000000000000000F9
:104880000000000000000000000030007E0030004A
:1048900030003700398030C030C030C030C030C048
:1048A00030C030C030C00080018007000000000030
:1048B0000000000000060C18003F3030303030306F
:1048C0003030300000000000000000000000000058
:1048D000000000000000000000001E003100200069
:1048E00060007E0060006000700031001E0000006B
:1048F00000000000000000000000000000000000B8
:10490000001E316060783E0F03433C000000000051
:104910000000000000606000006060606060606037
:104920006060600000000000000000000000C8C8D7
:104930000030303030303030303030000000000097
:104940000000000000606000006060606060606007
:104950006060606060C08000000000000000000037
:10496000000000000000000000000FC00CC00CC0E0
:104970000CC00CFC18C618C618C630C660FC000077
:104980000000000000000000000000000000000027
:104990000000000000000000000030C030C030C047
:1049A00030C03FFC30C630C630C630C630FC0000D8
:1049B00000000000000000000000000000000000F7
:1049C0000000300030007E003000378039C030C039
:1049D00030C030C030C030C030C030C030C0000047
:1049E00000000000000000000000000000000000C7
:1049F0000000030006000C00000031C031803300CD
:104A000036003C003C0036003300318031C00000ED
:104A10000000000000000000000000000000000096
:104A20000000000021001E000000C0C06180618005
:104A300061003300330012001E000C000C0008005F
:104A400018001000E000000000000000000000005E
:104A50000000000000000000000030C030C030C086
:104A600030C030C030C030C030C030C03FC00600A1
:104A7000060006000600000000000C000600020010
:104A80000000C06060C060C03080398019801F00A5
:104A90000F000600060006000600060006000000E3
:104AA0000000000000000000000000000000000006
:104AB000000018000C0004000000C0C0618061808C
:104AC00061003300330012001E000C000C000800CF
:104AD00018001000E00000000000000000000000CE
:104AE00000000000000000381F0044708044600097
:104AF00044C0003980000180000180000180000175
:104B0000800001800000C00000C000007080001F15
:104B10000000000000000000000000000000000095
:104B20000000000000000000000000000000000085
:104B30000000000000000000000000020000027001
:104B4000000F800002400003F00006C80006C40009
:104B50000B84000984000B880006B00000000000F0
:104B60000000000000000000000000000000000045
:104B700000000000000000010000020000023800F8
:104B80001FC00002000002200003F0000E7C001A8B
:104B9000620012C1002181002181002382001E8653
:104BA00000003800000000000000000000000000CD
:104BB00000000000000000000000000000000000F5
:104BC00000000000000000000000000000000000E5
:104BD00000040000040800080C0008040008040099
:104BE00008020008820009800007000000000000A1
:104BF00000000000000000000000000000000000B5
:104C00000000000000000000000010000010000084
:104C1000300800200C0020040020060020020020A4
:104C200002002101002301001600001C000000000A
:104C30000000000000000000000000000000000074
:104C40000000000000000000000000000000000064
:104C5000000000000000000003000000E000000071
:104C60000000000003E0000C100000100000100025
:104C700000300000200000C0000300000000000021
:104C80000000000000000000000000000000000024
:104C90000000000000000003800000F80000000099
:104CA00000000003F0000E080000040000040000F3
:104CB000040000040000080000180000300000603C
:104CC0000001800000000000000000000000000063
:104CD00000000000000000000000000000000000D4
:104CE000000000000000000000000003E0000000E1
:104CF0000000700007E00000C00001800003C00059
:104D0000026000046000083E000000000000000097
:104D10000000000000000000000000000000000093
:104D20000000000000000000000007E0000000009C
:104D300000000000F0001F600000C00001800003C0
:104D4000000007E0000E20001C2000102000201FA3
:104D50000000000000000000000000000000000053
:104D60000000000000000000000000000000000043
:104D70000000000000000000010000010000011818
:104D80000001EC000F060001000001F00003080024
:104D90000504000904000944000638000000000072
:104DA0000000000000000000000000000000000003
:104DB00000000000000000020000020000020800E5
:104DC00003E4001E020002010002000003F8000ECE
:104DD00006001A0300120100220100224100226293
:104DE000001C1E0000000000000000000000000089
:104DF00000000000000000000000000002000002AF
:104E000000000600000400000408001FC40028265B
:104E1000000822001821001021801020803020007E
:104E200020200026400043C0004000000000000099
:104E30000000000000000000000000000000000072
:104E400000000000020200020500060480040200C7
:104E50000412001F8800284C00084400184200106B
:104E600043001041003040002040002C800047806B
:104E700000400000000000000000000000000000F2
:104E80000000000000000000000000000000000121
:104E9000000001000000F8001FE000008000004654
:104EA0000000F8001F200000100003F800040C00B0
:104EB0000800000800000C000003F80000000000DB
:104EC00000000000000000000000000000000000E2
:104ED00000000000000400010A0001050000FA00C3
:104EE0001FE00000460000F8001F20000030000016
:104EF000100003F800040C000800000800000C007B
:104F00000003F800000000000000000000000000A6
:104F10000000000000000000000000000000000091
:104F200010000030000060000040000080000180A0
:104F300000030000060000060000030000018000DE
:104F400000C00000600000300000180000080000F1
:104F50000000000000000000000000000000000051
:104F6000000000000010000030000024000042009B
:104F700000C90001840003020006000006000006CC
:104F8000000003000001800000C00000600000304D
:104F900000001800000800000000000000000000F1
:104FA0000000000000000000000000000000000001
:104FB0001000101000101000101000101F0013F04F
:104FC0000010100010100010100010100010100041
:104FD0000830000820000020000040000000000011
:104FE00000000000000000000000000000000000C1
:104FF00000000000001200101500101280101300B5
:10500000101100101F0013F00010100010100010FD
:1050100010001010001010000830000820000020C0
:105020000000400000000000000000000000000040
:105030000000000000000000000000000000000070
:1050400000000000000FF800000000000000000059
:105050000000000000000010000010000010000020
:105060001000000FFE000000000000000000000023
:105070000000000000000000000000000000000030
:10508000000000000002000005000002800FFD008B
:105090000000000000000000000000000000001000
:1050A00000001000001000001000000FFE000000C3
:1050B00000000000000000000000000000000000F0
:1050C00000000000000000000000000000000002DE
:1050D000000003000001060001B80007C0003C40CA
:1050E0000000600000300003F800060C000800001B
:1050F0000800000C000007F800000000000000009D
:10510000000000000000000000000000000000009F
:1051100000000000000600021300030C00011E0046
:1051200001F00007C00038400000200000300003FC
:10513000F800060C000800000800000C000007F84A
:10514000000000000000000000000000000000005F
:105150000000000000000000000000000000000847
:105160000000080000080000080000080000080017
:105170000008000008000008000008000008060001
:10518000080C0004380003E00000000000000000EC
:10519000000000000000000000000000000000000F
:1051A000000000000000000810000848000824006B
:1051B000083000081000080000080000080000087F
:1051C0000000080000080600080C0004380003E096
:1051D00000000000000000000000000000000000CF
:1051E000000000000000000000000000002000009F
:1051F00020000020000023803FFC0000200003E08E
:105200000006600004200004300006700003F00077
:10521000003000002000004000018000010000007C
:10522000000000000000000000000000000000007E
:1052300000000000002A00002500002280002380DA
:105240003FFC0000200003E0000660000420000492
:10525000300006700003F000003000002000004025
:1052600000018000010000000000000000000000BC
:10527000000000000000000000000000000000002E
:105280000000000800040800040800040800040FDF
:10529000803FF80004080004080004080004F0003F
:1052A00004000004000004000003FC0000000000F3
:1052B00000000000000000000000000000000000EE
:1052C00000000000000000000200000D00040A8041
:1052D000040900040800040F003FF800040800045B
:1052E000080004080004F0000400000400000400AA
:1052F0000003FC00000000000000000000000000AF
:10530000000000000000000000000000000000009D
:1053100070000FE000004000008000010000061F48
:10532000000FF00071800003000002000002000086
:105330000200000300000180000070000000000077
:10534000000000000000000000000000000000005D
:1053500000000000000200007D000FF48000220029
:1053600000C200010000021E0007F0007980000367
:1053700000000200000200000200000300000180A3
:1053800000007000000000000000000000000000AD
:10539000000000000000000000000000000000010C
:1053A000000001000001000002C0003F00000200F8
:1053B00000063E0004C0000400000C0000080000CD
:1053C000080000118000107F002000000000000095
:1053D00000000000000000000000000000000000CD
:1053E0000000000000000001020001010001048033
:1053F00002E6003F0200020000061F0004600004F5
:1054000000000C0000080000080000118000107F60
:1054100080200000000000000000000000000000EC
:10542000000000000000000000000000010000017A
:1054300000000100000206001FFE00020000020042
:105440000006000004F8000784000E0200080200B5
:10545000000200000600000C0001F0000000000047
:10546000000000000000000000000000000000003C
:10547000000000000100000102000105000206809A
:105480001FFA0002000002000006000004F80007F6
:1054900084000E0200080200000200000600000C5A
:1054A0000001F0000000000000000000000000000B
:1054B00000000000000000000000000000000000EC
:1054C000000000000000000000000000000001F0EB
:1054D000000E08001804000004000004000004008E
:1054E00000080000300001E00000000000000000A3
:1054F00000000000000000000000000000000000AC
:10550000000000000000000000000000000000009B
:1055100001F8001E0600300200000100000100003A
:10552000010000010000020000060000380003C076
:10553000000000000000000000000000000000006B
:10554000000000000000000000000000000000005B
:10555000010000058000028003FA003E06006002A0
:105560000000010000010000010000010000020035
:1055700000060000380003C000000000000000002A
:10558000000000000000000000000000000000001B
:10559000000000000000000000000000003FFF00CD
:1055A00000700000C0000180000300000200000243
:1055B000000002000002000001000001800000E085
:1055C00000003800000000000000000000000000A3
:1055D00000000000000000000000000000000000CB
:1055E00000000000003FFF0000700000C600018BBB
:1055F0000003058002060002020002000002000013
:1056000001000001800000E0000038000000000000
:10561000000000000000000000000000000000008A
:105620000000000000000002000002000002000074
:10563000020000020000021C0002F00003800006CD
:10564000000008000010000010000010000008001A
:105650000007FC0000000000000000000000000047
:105660000000000000000000000000000000000238
:105670000400020200020900020C000204000218E9
:105680000002E00003000006000008000010000017
:1056900010000010000008000007FC0000000000DF
:1056A00000000000000000000000000000000000FA
:1056B00000000000000000010000010000020000E6
:1056C00003D8001E06000403000C10000810000898
:1056D000100010100031F0002218000214000232F5
:1056E0000001E000000000000000000000000000D9
:1056F00000000000000000000000000000000000AA
:10570000000010000010000023FE00200000200018
:1057100000200000200000200000200000230000E6
:10572000218000207F002000000000000000000019
:105730000000000000000000000000000000000069
:10574000000000000000000020000020000C2000ED
:105750000C20000DFC000722000E22001A4100134D
:10576000410031C100219D0021A3002227001C1C03
:1057700080000000000000000000000000000000A9
:105780000000000000000000000000000000000217
:1057900000000600000600001E380067C400070273
:1057A000000602000C02000C02001C0200243A0059
:1057B0004446000445000438800400000000000056
:1057C00000000000000000000000000000000000D9
:1057D0000000000000000000000000000001F800D0
:1057E000068C0008C20010C10030C10021810021D8
:1057F00081002181002302001306000E0C000030FE
:105800000000000000000000000000000000000098
:105810000000000000000000000000000000000088
:10582000100010100010100030100027FF00201092
:105830000020100020100020100020100021F00097
:10584000221C0022160012210011E00000000000BE
:105850000000000000000000000000000000000048
:105860000000000000020000150010168010120059
:1058700030100027FF002010002010002010002012
:10588000100020100021F000221C0022160012211E
:105890000011E00000000000000000000000000017
:1058A00000000000000000000000000000030000F5
:1058B000148010148010130030100027FF002010F7
:1058C0000020100020100020100020100021F00007
:1058D000221C0022130012208011E00000000000B2
:1058E00000000000000000000000000000000000B8
:1058F000000000000000000000000310001E100067
:10590000740800080800080C00080E00100A0010B7
:1059100009001008801008000810000C300003C0B7
:105920000000000000000000000000000000000077
:105930000000000000000000000000000002000065
:1059400009000314801E1200740800080800080CE7
:1059500000080E00100A001009001008801008004E
:105960000810000C300003C0000000000000000020
:105970000000000000000000000000000000000027
:10598000000000000003000004800314801E1300C8
:10599000740800080800080C00080E00100A001027
:1059A00009001008801008000810000C300003C027
:1059B00000000000000000000000000000000000E7
:1059C00000000000000000000000000000000006D1
:1059D00000000180000060000000000200000600DE
:1059E0000007080003840000C6000463000821804B
:1059F00018208030200064200003C0000000000058
:105A00000000000000000000000000000000000096
:105A100000000000000000060400019A00006D0074
:105A200000020002000006000007080003840000D6
:105A3000C600046300082180182080302000642004
:105A40000003C00000000000000000000000000093
:105A50000000000000000000000000000000000640
:105A6000060001890000690000060002000006002F
:105A70000007000003880000C40004620008210041
:105A800018208030200064200003C00000000000C7
:105A90000000000000000000000000000000000006
:105AA00000000000000000000000000000000000F6
:105AB00000000003800006C0000C600018300030B9
:105AC0000800400600000300000180000000000004
:105AD00000000000000000000000000000000000C6
